{
  "address": "0x25FD7680c24c62C7c8Cad5090f9A02b68e612586",
  "abi": [
    {
      "inputs": [
        {
          "internalType": "address",
          "name": "VRFCoordinatorV2",
          "type": "address"
        },
        {
          "internalType": "uint256",
          "name": "entranceFee",
          "type": "uint256"
        },
        {
          "internalType": "bytes32",
          "name": "keyHash",
          "type": "bytes32"
        },
        {
          "internalType": "uint64",
          "name": "subscriptionId",
          "type": "uint64"
        },
        {
          "internalType": "uint32",
          "name": "callBackGasLimit",
          "type": "uint32"
        },
        {
          "internalType": "uint256",
          "name": "interval",
          "type": "uint256"
        }
      ],
      "stateMutability": "nonpayable",
      "type": "constructor"
    },
    {
      "inputs": [
        {
          "internalType": "address",
          "name": "have",
          "type": "address"
        },
        {
          "internalType": "address",
          "name": "want",
          "type": "address"
        }
      ],
      "name": "OnlyCoordinatorCanFulfill",
      "type": "error"
    },
    {
      "inputs": [],
      "name": "Raffle__NotEnoughEth",
      "type": "error"
    },
    {
      "inputs": [],
      "name": "Raffle__NotOpen",
      "type": "error"
    },
    {
      "inputs": [],
      "name": "Raffle__TransferFailed",
      "type": "error"
    },
    {
      "inputs": [
        {
          "internalType": "uint256",
          "name": "currentBalance",
          "type": "uint256"
        },
        {
          "internalType": "uint256",
          "name": "numPlayers",
          "type": "uint256"
        },
        {
          "internalType": "uint256",
          "name": "raffleState",
          "type": "uint256"
        }
      ],
      "name": "Raffle__UpkeepNotNeeded",
      "type": "error"
    },
    {
      "anonymous": false,
      "inputs": [
        {
          "indexed": true,
          "internalType": "address",
          "name": "player",
          "type": "address"
        }
      ],
      "name": "RaffleEnter",
      "type": "event"
    },
    {
      "anonymous": false,
      "inputs": [
        {
          "indexed": true,
          "internalType": "uint256",
          "name": "requestId",
          "type": "uint256"
        }
      ],
      "name": "RequestedRaffleWinner",
      "type": "event"
    },
    {
      "anonymous": false,
      "inputs": [
        {
          "indexed": true,
          "internalType": "address",
          "name": "winner",
          "type": "address"
        }
      ],
      "name": "WinnerPicked",
      "type": "event"
    },
    {
      "inputs": [
        {
          "internalType": "bytes",
          "name": "",
          "type": "bytes"
        }
      ],
      "name": "checkUpkeep",
      "outputs": [
        {
          "internalType": "bool",
          "name": "upkeepNeeded",
          "type": "bool"
        },
        {
          "internalType": "bytes",
          "name": "",
          "type": "bytes"
        }
      ],
      "stateMutability": "view",
      "type": "function"
    },
    {
      "inputs": [],
      "name": "enterRaffle",
      "outputs": [],
      "stateMutability": "payable",
      "type": "function"
    },
    {
      "inputs": [],
      "name": "getBalance",
      "outputs": [
        {
          "internalType": "uint256",
          "name": "",
          "type": "uint256"
        }
      ],
      "stateMutability": "view",
      "type": "function"
    },
    {
      "inputs": [],
      "name": "getEntranceFee",
      "outputs": [
        {
          "internalType": "uint256",
          "name": "",
          "type": "uint256"
        }
      ],
      "stateMutability": "view",
      "type": "function"
    },
    {
      "inputs": [],
      "name": "getInterval",
      "outputs": [
        {
          "internalType": "uint256",
          "name": "",
          "type": "uint256"
        }
      ],
      "stateMutability": "view",
      "type": "function"
    },
    {
      "inputs": [],
      "name": "getLastTimeStamp",
      "outputs": [
        {
          "internalType": "uint256",
          "name": "",
          "type": "uint256"
        }
      ],
      "stateMutability": "view",
      "type": "function"
    },
    {
      "inputs": [],
      "name": "getNumWords",
      "outputs": [
        {
          "internalType": "uint256",
          "name": "",
          "type": "uint256"
        }
      ],
      "stateMutability": "pure",
      "type": "function"
    },
    {
      "inputs": [],
      "name": "getNumberOfPlayers",
      "outputs": [
        {
          "internalType": "uint256",
          "name": "",
          "type": "uint256"
        }
      ],
      "stateMutability": "view",
      "type": "function"
    },
    {
      "inputs": [
        {
          "internalType": "uint256",
          "name": "index",
          "type": "uint256"
        }
      ],
      "name": "getPlayer",
      "outputs": [
        {
          "internalType": "address",
          "name": "",
          "type": "address"
        }
      ],
      "stateMutability": "view",
      "type": "function"
    },
    {
      "inputs": [],
      "name": "getRaffleState",
      "outputs": [
        {
          "internalType": "enum Raffle.RaffleState",
          "name": "",
          "type": "uint8"
        }
      ],
      "stateMutability": "view",
      "type": "function"
    },
    {
      "inputs": [],
      "name": "getRecentWinner",
      "outputs": [
        {
          "internalType": "address",
          "name": "",
          "type": "address"
        }
      ],
      "stateMutability": "view",
      "type": "function"
    },
    {
      "inputs": [],
      "name": "getRequestConfirmations",
      "outputs": [
        {
          "internalType": "uint256",
          "name": "",
          "type": "uint256"
        }
      ],
      "stateMutability": "pure",
      "type": "function"
    },
    {
      "inputs": [],
      "name": "getSubscriptionId",
      "outputs": [
        {
          "internalType": "uint256",
          "name": "",
          "type": "uint256"
        }
      ],
      "stateMutability": "view",
      "type": "function"
    },
    {
      "inputs": [
        {
          "internalType": "bytes",
          "name": "",
          "type": "bytes"
        }
      ],
      "name": "performUpkeep",
      "outputs": [],
      "stateMutability": "nonpayable",
      "type": "function"
    },
    {
      "inputs": [
        {
          "internalType": "uint256",
          "name": "requestId",
          "type": "uint256"
        },
        {
          "internalType": "uint256[]",
          "name": "randomWords",
          "type": "uint256[]"
        }
      ],
      "name": "rawFulfillRandomWords",
      "outputs": [],
      "stateMutability": "nonpayable",
      "type": "function"
    }
  ],
  "transactionHash": "0x963dfdab8de1effa75f6c03ec1b6d4dd67fff7785a56f66e27f673f3250b868d",
  "args": [
    "0x2ca8e0c643bde4c2e08ab1fa0da3401adad7734d",
    "10000000000000000",
    "0x79d3d8832d904592c0bf9818b621522c988bb8b0c05cdc3b15aea1b6e8db0c15",
    "8370",
    "500000",
    "30"
  ],
  "numDeployments": 2,
  "solcInputHash": "73f85e33e6ccc260bb5424f24c1bdce4",
  "bytecode": "0x6101606040523480156200001257600080fd5b506040516200193738038062001937833981810160405281019062000038919062000294565b858073ffffffffffffffffffffffffffffffffffffffff1660808173ffffffffffffffffffffffffffffffffffffffff1681525050508460a081815250508573ffffffffffffffffffffffffffffffffffffffff1660e08173ffffffffffffffffffffffffffffffffffffffff16815250508361010081815250508267ffffffffffffffff166101208167ffffffffffffffff16815250508163ffffffff166101408163ffffffff16815250506000600160146101000a81548160ff021916908360018111156200010e576200010d62000330565b5b0217905550426002819055508060c081815250505050505050506200035f565b600080fd5b600073ffffffffffffffffffffffffffffffffffffffff82169050919050565b6000620001608262000133565b9050919050565b620001728162000153565b81146200017e57600080fd5b50565b600081519050620001928162000167565b92915050565b6000819050919050565b620001ad8162000198565b8114620001b957600080fd5b50565b600081519050620001cd81620001a2565b92915050565b6000819050919050565b620001e881620001d3565b8114620001f457600080fd5b50565b6000815190506200020881620001dd565b92915050565b600067ffffffffffffffff82169050919050565b6200022d816200020e565b81146200023957600080fd5b50565b6000815190506200024d8162000222565b92915050565b600063ffffffff82169050919050565b6200026e8162000253565b81146200027a57600080fd5b50565b6000815190506200028e8162000263565b92915050565b60008060008060008060c08789031215620002b457620002b36200012e565b5b6000620002c489828a0162000181565b9650506020620002d789828a01620001bc565b9550506040620002ea89828a01620001f7565b9450506060620002fd89828a016200023c565b93505060806200031089828a016200027d565b92505060a06200032389828a01620001bc565b9150509295509295509295565b7f4e487b7100000000000000000000000000000000000000000000000000000000600052602160045260246000fd5b60805160a05160c05160e051610100516101205161014051611561620003d6600039600061071f0152600081816106fc015261093c015260006106db0152600061069f015260008181610874015261090a015260008181610376015261047b0152600081816103bb015261040f01526115616000f3fe6080604052600436106100e85760003560e01c806353a2c19a1161008a578063c1c244e811610059578063c1c244e8146102b4578063de3d9fb7146102df578063e55ae4e81461030a578063fd6673f514610347576100e8565b806353a2c19a146101f55780635f1b0fd8146102205780636e04ff0d1461024b57806391ad27b414610289576100e8565b80631fe543e3116100c65780631fe543e31461016e5780632cfcc539146101975780634585e33b146101a1578063473f1ddc146101ca576100e8565b806309bc33a7146100ed578063115cbaf51461011857806312065fe014610143575b600080fd5b3480156100f957600080fd5b50610102610372565b60405161010f9190610cba565b60405180910390f35b34801561012457600080fd5b5061012d61039a565b60405161013a9190610d4c565b60405180910390f35b34801561014f57600080fd5b506101586103b1565b6040516101659190610cba565b60405180910390f35b34801561017a57600080fd5b5061019560048036038101906101909190610f00565b6103b9565b005b61019f610479565b005b3480156101ad57600080fd5b506101c860048036038101906101c39190610fb7565b6105e8565b005b3480156101d657600080fd5b506101df6107d8565b6040516101ec9190611045565b60405180910390f35b34801561020157600080fd5b5061020a610802565b6040516102179190610cba565b60405180910390f35b34801561022c57600080fd5b50610235610811565b6040516102429190610cba565b60405180910390f35b34801561025757600080fd5b50610272600480360381019061026d9190611115565b61081e565b6040516102809291906111f8565b60405180910390f35b34801561029557600080fd5b5061029e610906565b6040516102ab9190610cba565b60405180910390f35b3480156102c057600080fd5b506102c961092e565b6040516102d69190610cba565b60405180910390f35b3480156102eb57600080fd5b506102f4610938565b6040516103019190610cba565b60405180910390f35b34801561031657600080fd5b50610331600480360381019061032c9190611228565b61096a565b60405161033e9190611045565b60405180910390f35b34801561035357600080fd5b5061035c6109b1565b6040516103699190610cba565b60405180910390f35b60007f0000000000000000000000000000000000000000000000000000000000000000905090565b6000600160149054906101000a900460ff16905090565b600047905090565b7f000000000000000000000000000000000000000000000000000000000000000073ffffffffffffffffffffffffffffffffffffffff163373ffffffffffffffffffffffffffffffffffffffff161461046b57337f00000000000000000000000000000000000000000000000000000000000000006040517f1cf993f4000000000000000000000000000000000000000000000000000000008152600401610462929190611255565b60405180910390fd5b61047582826109bd565b5050565b7f00000000000000000000000000000000000000000000000000000000000000003410156104d3576040517fa10e43c700000000000000000000000000000000000000000000000000000000815260040160405180910390fd5b600060018111156104e7576104e6610cd5565b5b600160149054906101000a900460ff16600181111561050957610508610cd5565b5b14610540576040517f1425571c00000000000000000000000000000000000000000000000000000000815260040160405180910390fd5b6000339080600181540180825580915050600190039060005260206000200160009091909190916101000a81548173ffffffffffffffffffffffffffffffffffffffff021916908373ffffffffffffffffffffffffffffffffffffffff1602179055503373ffffffffffffffffffffffffffffffffffffffff167f0805e1d667bddb8a95f0f09880cf94f403fb596ce79928d9f29b74203ba284d460405160405180910390a2565b60006106026040518060200160405280600081525061081e565b509050806106715747600080549050600160149054906101000a900460ff16600181111561063357610632610cd5565b5b6040517f584327aa0000000000000000000000000000000000000000000000000000000081526004016106689392919061127e565b60405180910390fd5b60018060146101000a81548160ff0219169083600181111561069657610695610cd5565b5b021790555060007f000000000000000000000000000000000000000000000000000000000000000073ffffffffffffffffffffffffffffffffffffffff16635d3b1d307f00000000000000000000000000000000000000000000000000000000000000007f000000000000000000000000000000000000000000000000000000000000000060037f000000000000000000000000000000000000000000000000000000000000000060016040518663ffffffff1660e01b815260040161076095949392919061132d565b6020604051808303816000875af115801561077f573d6000803e3d6000fd5b505050506040513d601f19601f820116820180604052508101906107a39190611395565b9050807fcd6e45c8998311cab7e9d4385596cac867e20a0587194b954fa3a731c93ce78b60405160405180910390a250505050565b6000600160009054906101000a900473ffffffffffffffffffffffffffffffffffffffff16905090565b6000600163ffffffff16905090565b6000600361ffff16905090565b600060606000600160149054906101000a900460ff16600181111561084657610845610cd5565b5b6000600181111561085a57610859610cd5565b5b1490506000804711905060008060008054905011905060007f0000000000000000000000000000000000000000000000000000000000000000600254426108a191906113f1565b1190508080156108ae5750835b80156108b75750825b80156108c05750815b9550856040518060400160405280600381526020017f30783000000000000000000000000000000000000000000000000000000000008152509550955050505050915091565b60007f0000000000000000000000000000000000000000000000000000000000000000905090565b6000600254905090565b60007f000000000000000000000000000000000000000000000000000000000000000067ffffffffffffffff16905090565b600080828154811061097f5761097e611425565b5b9060005260206000200160009054906101000a900473ffffffffffffffffffffffffffffffffffffffff169050919050565b60008080549050905090565b60008080549050826000815181106109d8576109d7611425565b5b60200260200101516109ea9190611483565b90506000808281548110610a0157610a00611425565b5b9060005260206000200160009054906101000a900473ffffffffffffffffffffffffffffffffffffffff16905080600160006101000a81548173ffffffffffffffffffffffffffffffffffffffff021916908373ffffffffffffffffffffffffffffffffffffffff1602179055506000600160146101000a81548160ff02191690836001811115610a9557610a94610cd5565b5b0217905550600067ffffffffffffffff811115610ab557610ab4610dbd565b5b604051908082528060200260200182016040528015610ae35781602001602082028036833780820191505090505b5060009080519060200190610af9929190610bfa565b504260028190555060008173ffffffffffffffffffffffffffffffffffffffff16601447610b2791906114b4565b604051610b3390611516565b60006040518083038185875af1925050503d8060008114610b70576040519150601f19603f3d011682016040523d82523d6000602084013e610b75565b606091505b5050905080610bb0576040517fa1d04b3900000000000000000000000000000000000000000000000000000000815260040160405180910390fd5b8173ffffffffffffffffffffffffffffffffffffffff167f5b690ec4a06fe979403046eaeea5b3ce38524683c3001f662c8b5a829632f7df60405160405180910390a25050505050565b828054828255906000526020600020908101928215610c73579160200282015b82811115610c725782518260006101000a81548173ffffffffffffffffffffffffffffffffffffffff021916908373ffffffffffffffffffffffffffffffffffffffff16021790555091602001919060010190610c1a565b5b509050610c809190610c84565b5090565b5b80821115610c9d576000816000905550600101610c85565b5090565b6000819050919050565b610cb481610ca1565b82525050565b6000602082019050610ccf6000830184610cab565b92915050565b7f4e487b7100000000000000000000000000000000000000000000000000000000600052602160045260246000fd5b60028110610d1557610d14610cd5565b5b50565b6000819050610d2682610d04565b919050565b6000610d3682610d18565b9050919050565b610d4681610d2b565b82525050565b6000602082019050610d616000830184610d3d565b92915050565b6000604051905090565b600080fd5b600080fd5b610d8481610ca1565b8114610d8f57600080fd5b50565b600081359050610da181610d7b565b92915050565b600080fd5b6000601f19601f8301169050919050565b7f4e487b7100000000000000000000000000000000000000000000000000000000600052604160045260246000fd5b610df582610dac565b810181811067ffffffffffffffff82111715610e1457610e13610dbd565b5b80604052505050565b6000610e27610d67565b9050610e338282610dec565b919050565b600067ffffffffffffffff821115610e5357610e52610dbd565b5b602082029050602081019050919050565b600080fd5b6000610e7c610e7784610e38565b610e1d565b90508083825260208201905060208402830185811115610e9f57610e9e610e64565b5b835b81811015610ec85780610eb48882610d92565b845260208401935050602081019050610ea1565b5050509392505050565b600082601f830112610ee757610ee6610da7565b5b8135610ef7848260208601610e69565b91505092915050565b60008060408385031215610f1757610f16610d71565b5b6000610f2585828601610d92565b925050602083013567ffffffffffffffff811115610f4657610f45610d76565b5b610f5285828601610ed2565b9150509250929050565b600080fd5b60008083601f840112610f7757610f76610da7565b5b8235905067ffffffffffffffff811115610f9457610f93610f5c565b5b602083019150836001820283011115610fb057610faf610e64565b5b9250929050565b60008060208385031215610fce57610fcd610d71565b5b600083013567ffffffffffffffff811115610fec57610feb610d76565b5b610ff885828601610f61565b92509250509250929050565b600073ffffffffffffffffffffffffffffffffffffffff82169050919050565b600061102f82611004565b9050919050565b61103f81611024565b82525050565b600060208201905061105a6000830184611036565b92915050565b600080fd5b600067ffffffffffffffff8211156110805761107f610dbd565b5b61108982610dac565b9050602081019050919050565b82818337600083830152505050565b60006110b86110b384611065565b610e1d565b9050828152602081018484840111156110d4576110d3611060565b5b6110df848285611096565b509392505050565b600082601f8301126110fc576110fb610da7565b5b813561110c8482602086016110a5565b91505092915050565b60006020828403121561112b5761112a610d71565b5b600082013567ffffffffffffffff81111561114957611148610d76565b5b611155848285016110e7565b91505092915050565b60008115159050919050565b6111738161115e565b82525050565b600081519050919050565b600082825260208201905092915050565b60005b838110156111b3578082015181840152602081019050611198565b60008484015250505050565b60006111ca82611179565b6111d48185611184565b93506111e4818560208601611195565b6111ed81610dac565b840191505092915050565b600060408201905061120d600083018561116a565b818103602083015261121f81846111bf565b90509392505050565b60006020828403121561123e5761123d610d71565b5b600061124c84828501610d92565b91505092915050565b600060408201905061126a6000830185611036565b6112776020830184611036565b9392505050565b60006060820190506112936000830186610cab565b6112a06020830185610cab565b6112ad6040830184610cab565b949350505050565b6000819050919050565b6112c8816112b5565b82525050565b600067ffffffffffffffff82169050919050565b6112eb816112ce565b82525050565b600061ffff82169050919050565b611308816112f1565b82525050565b600063ffffffff82169050919050565b6113278161130e565b82525050565b600060a08201905061134260008301886112bf565b61134f60208301876112e2565b61135c60408301866112ff565b611369606083018561131e565b611376608083018461131e565b9695505050505050565b60008151905061138f81610d7b565b92915050565b6000602082840312156113ab576113aa610d71565b5b60006113b984828501611380565b91505092915050565b7f4e487b7100000000000000000000000000000000000000000000000000000000600052601160045260246000fd5b60006113fc82610ca1565b915061140783610ca1565b925082820390508181111561141f5761141e6113c2565b5b92915050565b7f4e487b7100000000000000000000000000000000000000000000000000000000600052603260045260246000fd5b7f4e487b7100000000000000000000000000000000000000000000000000000000600052601260045260246000fd5b600061148e82610ca1565b915061149983610ca1565b9250826114a9576114a8611454565b5b828206905092915050565b60006114bf82610ca1565b91506114ca83610ca1565b9250826114da576114d9611454565b5b828204905092915050565b600081905092915050565b50565b60006115006000836114e5565b915061150b826114f0565b600082019050919050565b6000611521826114f3565b915081905091905056fea26469706673582212202f8914fc36794239b4c37b8b348e37eeaa96138d8aa49c43b789284a6883feb964736f6c63430008100033",
  "devdoc": {
    "author": "bami",
    "details": "implements chainlink VRF v2 & chainlink automation",
    "kind": "dev",
    "methods": {
      "performUpkeep(bytes)": {
        "details": "Once `checkUpkeep` is returning `true`, this function is called and it kicks off a Chainlink VRF call to get a random winner."
      }
    },
    "title": "lottery contract",
    "version": 1
  },
  "userdoc": {
    "kind": "user",
    "methods": {
      "checkUpkeep(bytes)": {
        "notice": "CHAINLINK KEEPERS (AUTOMATION) "
      },
      "getBalance()": {
        "notice": "Getter Functions "
      }
    },
    "notice": "contract is for creating a Decentralized smart contract",
    "version": 1
  },
  "storageLayout": {
    "storage": [
      {
        "astId": 202,
        "contract": "contracts/Raffle.sol:Raffle",
        "label": "s_players",
        "offset": 0,
        "slot": "0",
        "type": "t_array(t_address_payable)dyn_storage"
      },
      {
        "astId": 205,
        "contract": "contracts/Raffle.sol:Raffle",
        "label": "s_recentWinner",
        "offset": 0,
        "slot": "1",
        "type": "t_address"
      },
      {
        "astId": 211,
        "contract": "contracts/Raffle.sol:Raffle",
        "label": "s_raffleState",
        "offset": 20,
        "slot": "1",
        "type": "t_enum(RaffleState)208"
      },
      {
        "astId": 213,
        "contract": "contracts/Raffle.sol:Raffle",
        "label": "s_lastTimeStamp",
        "offset": 0,
        "slot": "2",
        "type": "t_uint256"
      }
    ],
    "types": {
      "t_address": {
        "encoding": "inplace",
        "label": "address",
        "numberOfBytes": "20"
      },
      "t_address_payable": {
        "encoding": "inplace",
        "label": "address payable",
        "numberOfBytes": "20"
      },
      "t_array(t_address_payable)dyn_storage": {
        "base": "t_address_payable",
        "encoding": "dynamic_array",
        "label": "address payable[]",
        "numberOfBytes": "32"
      },
      "t_enum(RaffleState)208": {
        "encoding": "inplace",
        "label": "enum Raffle.RaffleState",
        "numberOfBytes": "1"
      },
      "t_uint256": {
        "encoding": "inplace",
        "label": "uint256",
        "numberOfBytes": "32"
      }
    }
  }
}